{
  "_format": "hh-sol-artifact-1",
  "contractName": "VulnerableTxOrigin",
  "sourceName": "contracts/tx-origin/VulnerableTxOrigin.sol",
  "abi": [
    {
      "inputs": [],
      "stateMutability": "nonpayable",
      "type": "constructor"
    },
    {
      "inputs": [],
      "name": "owner",
      "outputs": [
        {
          "internalType": "address",
          "name": "",
          "type": "address"
        }
      ],
      "stateMutability": "view",
      "type": "function"
    },
    {
      "inputs": [],
      "name": "withdrawAll",
      "outputs": [],
      "stateMutability": "nonpayable",
      "type": "function"
    },
    {
      "stateMutability": "payable",
      "type": "receive"
    }
  ],
  "bytecode": "0x608060405234801561001057600080fd5b50336000806101000a81548173ffffffffffffffffffffffffffffffffffffffff021916908373ffffffffffffffffffffffffffffffffffffffff160217905550610285806100606000396000f3fe60806040526004361061002d5760003560e01c8063853828b6146100395780638da5cb5b1461005057610034565b3661003457005b600080fd5b34801561004557600080fd5b5061004e61007b565b005b34801561005c57600080fd5b50610065610152565b60405161007291906101b7565b60405180910390f35b60008054906101000a900473ffffffffffffffffffffffffffffffffffffffff1673ffffffffffffffffffffffffffffffffffffffff163273ffffffffffffffffffffffffffffffffffffffff1614610109576040517f08c379a00000000000000000000000000000000000000000000000000000000081526004016101009061022f565b60405180910390fd5b3373ffffffffffffffffffffffffffffffffffffffff166108fc479081150290604051600060405180830381858888f1935050505015801561014f573d6000803e3d6000fd5b50565b60008054906101000a900473ffffffffffffffffffffffffffffffffffffffff1681565b600073ffffffffffffffffffffffffffffffffffffffff82169050919050565b60006101a182610176565b9050919050565b6101b181610196565b82525050565b60006020820190506101cc60008301846101a8565b92915050565b600082825260208201905092915050565b7f6e6f74206f776e65720000000000000000000000000000000000000000000000600082015250565b60006102196009836101d2565b9150610224826101e3565b602082019050919050565b600060208201905081810360008301526102488161020c565b905091905056fea2646970667358221220cc8cf2dd0456d5190fe36af685d1ed7f5dc3ec6a2b94d464d34ae29d624380ce64736f6c63430008140033",
  "linkReferences": {},
  "deployedLinkReferences": {}
}