{
  "_format": "hh-sol-artifact-1",
  "contractName": "SafeGame",
  "sourceName": "contracts/front-running/SafeGame.sol",
  "abi": [
    {
      "inputs": [
        {
          "internalType": "bytes32",
          "name": "hash",
          "type": "bytes32"
        }
      ],
      "name": "commit",
      "outputs": [],
      "stateMutability": "nonpayable",
      "type": "function"
    },
    {
      "inputs": [
        {
          "internalType": "address",
          "name": "",
          "type": "address"
        }
      ],
      "name": "commits",
      "outputs": [
        {
          "internalType": "bytes32",
          "name": "",
          "type": "bytes32"
        }
      ],
      "stateMutability": "view",
      "type": "function"
    },
    {
      "inputs": [
        {
          "internalType": "uint256",
          "name": "number",
          "type": "uint256"
        },
        {
          "internalType": "string",
          "name": "secret",
          "type": "string"
        }
      ],
      "name": "reveal",
      "outputs": [],
      "stateMutability": "nonpayable",
      "type": "function"
    },
    {
      "inputs": [],
      "name": "winner",
      "outputs": [
        {
          "internalType": "address",
          "name": "",
          "type": "address"
        }
      ],
      "stateMutability": "view",
      "type": "function"
    }
  ],
  "bytecode": "0x608060405234801561001057600080fd5b506107ec806100206000396000f3fe608060405234801561001057600080fd5b506004361061004c5760003560e01c80632fa4548b146100515780637b43a8e61461006d578063dfbf53ae1461009d578063f14fcbc8146100bb575b600080fd5b61006b60048036038101906100669190610475565b6100d7565b005b6100876004803603810190610082919061052f565b610262565b6040516100949190610575565b60405180910390f35b6100a561027a565b6040516100b2919061059f565b60405180910390f35b6100d560048036038101906100d091906105e6565b61029e565b005b600073ffffffffffffffffffffffffffffffffffffffff1660008054906101000a900473ffffffffffffffffffffffffffffffffffffffff1673ffffffffffffffffffffffffffffffffffffffff1614610166576040517f08c379a000000000000000000000000000000000000000000000000000000000815260040161015d90610670565b60405180910390fd5b6000828260405160200161017b929190610722565b60405160208183030381529060405280519060200120905080600160003373ffffffffffffffffffffffffffffffffffffffff1673ffffffffffffffffffffffffffffffffffffffff1681526020019081526020016000205414610214576040517f08c379a000000000000000000000000000000000000000000000000000000000815260040161020b90610796565b60405180910390fd5b602a830361025d57336000806101000a81548173ffffffffffffffffffffffffffffffffffffffff021916908373ffffffffffffffffffffffffffffffffffffffff1602179055505b505050565b60016020528060005260406000206000915090505481565b60008054906101000a900473ffffffffffffffffffffffffffffffffffffffff1681565b80600160003373ffffffffffffffffffffffffffffffffffffffff1673ffffffffffffffffffffffffffffffffffffffff1681526020019081526020016000208190555050565b6000604051905090565b600080fd5b600080fd5b6000819050919050565b61030c816102f9565b811461031757600080fd5b50565b60008135905061032981610303565b92915050565b600080fd5b600080fd5b6000601f19601f8301169050919050565b7f4e487b7100000000000000000000000000000000000000000000000000000000600052604160045260246000fd5b61038282610339565b810181811067ffffffffffffffff821117156103a1576103a061034a565b5b80604052505050565b60006103b46102e5565b90506103c08282610379565b919050565b600067ffffffffffffffff8211156103e0576103df61034a565b5b6103e982610339565b9050602081019050919050565b82818337600083830152505050565b6000610418610413846103c5565b6103aa565b90508281526020810184848401111561043457610433610334565b5b61043f8482856103f6565b509392505050565b600082601f83011261045c5761045b61032f565b5b813561046c848260208601610405565b91505092915050565b6000806040838503121561048c5761048b6102ef565b5b600061049a8582860161031a565b925050602083013567ffffffffffffffff8111156104bb576104ba6102f4565b5b6104c785828601610447565b9150509250929050565b600073ffffffffffffffffffffffffffffffffffffffff82169050919050565b60006104fc826104d1565b9050919050565b61050c816104f1565b811461051757600080fd5b50565b60008135905061052981610503565b92915050565b600060208284031215610545576105446102ef565b5b60006105538482850161051a565b91505092915050565b6000819050919050565b61056f8161055c565b82525050565b600060208201905061058a6000830184610566565b92915050565b610599816104f1565b82525050565b60006020820190506105b46000830184610590565b92915050565b6105c38161055c565b81146105ce57600080fd5b50565b6000813590506105e0816105ba565b92915050565b6000602082840312156105fc576105fb6102ef565b5b600061060a848285016105d1565b91505092915050565b600082825260208201905092915050565b7f616c726561647920776f6e000000000000000000000000000000000000000000600082015250565b600061065a600b83610613565b915061066582610624565b602082019050919050565b600060208201905081810360008301526106898161064d565b9050919050565b6000819050919050565b6106ab6106a6826102f9565b610690565b82525050565b600081519050919050565b600081905092915050565b60005b838110156106e55780820151818401526020810190506106ca565b60008484015250505050565b60006106fc826106b1565b61070681856106bc565b93506107168185602086016106c7565b80840191505092915050565b600061072e828561069a565b60208201915061073e82846106f1565b91508190509392505050565b7f696e76616c69642072657665616c000000000000000000000000000000000000600082015250565b6000610780600e83610613565b915061078b8261074a565b602082019050919050565b600060208201905081810360008301526107af81610773565b905091905056fea26469706673582212208eb976ca7b0a5f250a4e73ccd60f56677cd36c5384920468aed1256fa50f354764736f6c63430008140033",
  "linkReferences": {},
  "deployedLinkReferences": {}
}