{
  "_format": "hh-sol-artifact-1",
  "contractName": "VulnerableBank",
  "sourceName": "contracts/reentrancy/VulnerableBank.sol",
  "abi": [
    {
      "inputs": [
        {
          "internalType": "address",
          "name": "",
          "type": "address"
        }
      ],
      "name": "balances",
      "outputs": [
        {
          "internalType": "uint256",
          "name": "",
          "type": "uint256"
        }
      ],
      "stateMutability": "view",
      "type": "function"
    },
    {
      "inputs": [],
      "name": "bankBalance",
      "outputs": [
        {
          "internalType": "uint256",
          "name": "",
          "type": "uint256"
        }
      ],
      "stateMutability": "view",
      "type": "function"
    },
    {
      "inputs": [],
      "name": "deposit",
      "outputs": [],
      "stateMutability": "payable",
      "type": "function"
    },
    {
      "inputs": [
        {
          "internalType": "uint256",
          "name": "amount",
          "type": "uint256"
        }
      ],
      "name": "withdraw",
      "outputs": [],
      "stateMutability": "nonpayable",
      "type": "function"
    }
  ],
  "bytecode": "0x608060405234801561001057600080fd5b50610549806100206000396000f3fe60806040526004361061003f5760003560e01c806327e235e31461004457806328657aa5146100815780632e1a7d4d146100ac578063d0e30db0146100d5575b600080fd5b34801561005057600080fd5b5061006b600480360381019061006691906102ff565b6100df565b6040516100789190610345565b60405180910390f35b34801561008d57600080fd5b506100966100f7565b6040516100a39190610345565b60405180910390f35b3480156100b857600080fd5b506100d360048036038101906100ce919061038c565b6100ff565b005b6100dd610245565b005b60006020528060005260406000206000915090505481565b600047905090565b806000803373ffffffffffffffffffffffffffffffffffffffff1673ffffffffffffffffffffffffffffffffffffffff168152602001908152602001600020541015610180576040517f08c379a000000000000000000000000000000000000000000000000000000000815260040161017790610416565b60405180910390fd5b60003373ffffffffffffffffffffffffffffffffffffffff16826040516101a690610467565b60006040518083038185875af1925050503d80600081146101e3576040519150601f19603f3d011682016040523d82523d6000602084013e6101e8565b606091505b50509050816000803373ffffffffffffffffffffffffffffffffffffffff1673ffffffffffffffffffffffffffffffffffffffff168152602001908152602001600020600082825461023a91906104ab565b925050819055505050565b346000803373ffffffffffffffffffffffffffffffffffffffff1673ffffffffffffffffffffffffffffffffffffffff168152602001908152602001600020600082825461029391906104df565b92505081905550565b600080fd5b600073ffffffffffffffffffffffffffffffffffffffff82169050919050565b60006102cc826102a1565b9050919050565b6102dc816102c1565b81146102e757600080fd5b50565b6000813590506102f9816102d3565b92915050565b6000602082840312156103155761031461029c565b5b6000610323848285016102ea565b91505092915050565b6000819050919050565b61033f8161032c565b82525050565b600060208201905061035a6000830184610336565b92915050565b6103698161032c565b811461037457600080fd5b50565b60008135905061038681610360565b92915050565b6000602082840312156103a2576103a161029c565b5b60006103b084828501610377565b91505092915050565b600082825260208201905092915050565b7f696e73756666696369656e740000000000000000000000000000000000000000600082015250565b6000610400600c836103b9565b915061040b826103ca565b602082019050919050565b6000602082019050818103600083015261042f816103f3565b9050919050565b600081905092915050565b50565b6000610451600083610436565b915061045c82610441565b600082019050919050565b600061047282610444565b9150819050919050565b7f4e487b7100000000000000000000000000000000000000000000000000000000600052601160045260246000fd5b60006104b68261032c565b91506104c18361032c565b92508282039050818111156104d9576104d861047c565b5b92915050565b60006104ea8261032c565b91506104f58361032c565b925082820190508082111561050d5761050c61047c565b5b9291505056fea264697066735822122044e13e00ce994a47a447230389ede79ba090430b61d83e4e893cb4b969b293df64736f6c63430008140033",
  "linkReferences": {},
  "deployedLinkReferences": {}
}